:020000040800F2
:1000000000280020451D0008551C00085B1C000846
:10001000611C0008671C00086D1C0008000000003F
:10002000000000000000000000000000731C000839
:100030007F1C0008000000008B1C0008971C0008B3
:100040008D1D00088D1D00088D1D00088D1D0008E8
:100050008D1D00088D1D00088D1D00088D1D0008D8
:100060008D1D00088D1D00088D1D00088D1D0008C8
:100070008D1D00088D1D00088D1D00088D1D0008B8
:100080008D1D00088D1D00088D1D00088D1D0008A8
:100090008D1D00088D1D00088D1D00088D1D000898
:1000A0008D1D00088D1D00088D1D00088D1D000888
:1000B000A51C00088D1D0008000000008D1D000813
:1000C0008D1D000800000000000000008D1D0008CC
:1000D000000000008D1D0008B91C00080000000091
:1000E0008D1D00088D1D00088D1D000800000000FA
:1000F0000000000000000000000000000000000000
:0C01000000000000000000005FF808F1A3
:10010C0010B5054C237833B9044B13B10448AFF345
:10011C0000800123237010BDBC00002000000000F3
:10012C009C4A000808B5034B1BB103490348AFF3C5
:10013C00008008BD00000000C00000209C4A0008A0
:10014C0080B500AF002000F081F90346012B1CD1D3
:10015C0001224FF47C411D4802F0C7F901224FF4F3
:10016C007C711A4802F0C1F9002001F033FC012027
:10017C0001F030FC32220121154801F067FB3222DC
:10018C000121144801F062FB1FE0012000F032FA5B
:10019C00022000F08BFA104B1B68013B0E4A1360D7
:1001AC000E4B1B68013B0D4A13600C4B1B68002B5C
:1001BC000BD10B4B1B68094A1360012001F00AFCA0
:1001CC0064220121074801F041FB80BD0008014079
:1001DC00411400087513000800010020F8000020ED
:1001EC0048000020F501000880B500AF002000F0A9
:1001FC002DF90346012B1CD101224FF47C411F48E1
:10020C0002F073F901224FF47C711C4802F06DF975
:10021C00002001F0DFFB012001F0DCFB3222012188
:10022C00174801F013FB32220121164801F00EFB96
:10023C0023E0012000F0DEF9032000F037FA124B26
:10024C001B68013B104A1360104B1B68013B0F4AA3
:10025C0013600E4B1B68002B0FD10D4B1B680B4A08
:10026C0013600C4B1B68084A1360012001F0B2FBB1
:10027C0064220121084801F0E9FA80BD0008014020
:10028C00411400087513000800010020F80000203C
:10029C004000002044000020A902000880B500AFF7
:1002AC00002000F0D3F80346012B1CD101224FF49F
:1002BC007C411D4802F019F901224FF47C711A4857
:1002CC0002F013F9002001F085FB012001F082FB04
:1002DC0032220121154801F0B9FA322201211448C9
:1002EC0001F0B4FA1FE0022000F084F9012000F0C4
:1002FC00DDF9104B1B68013B0E4A13600E4B1B685B
:10030C00013B0D4A13600B4B1B68002B0BD10B4BA5
:10031C001B68084A1360012001F05CFB6422012178
:10032C00074801F093FA80BD000801404114000811
:10033C007513000800010020F80000204800002080
:10034C005103000880B500AF002000F07FF8034691
:10035C00012B1CD101224FF47C411F4802F0C5F83F
:10036C0001224FF47C711C4802F0BFF8002001F010
:10037C0031FB012001F02EFB32220121174801F044
:10038C0065FA32220121164801F060FA23E00320BD
:10039C0000F030F9012000F089F9124B1B68013B89
:1003AC00104A1360104B1B68013B0F4A13600D4B36
:1003BC001B68002B0FD10D4B1B680B4A13600C4BA9
:1003CC001B68084A1360012001F004FB6422012120
:1003DC00084801F03BFA80BD0008014041140008B8
:1003EC007513000800010020F800002044000020D4
:1003FC00400000204D01000880B500AF104B1B7869
:10040C00002B02D0012B0CD017E00E4B1B680E4AB0
:10041C0012681146184600F075FD094B01221A703E
:10042C000BE0084B1B68084A12681146184600F08E
:10043C0093FD034B00221A7000BF00BF80BD00BFAC
:10044C00FC00002000010020F800002080B483B0E4
:10045C0000AF7860094A7B6852F82330012B06D133
:10046C00064A7B68002142F82310012300E0002398
:10047C0018460C37BD4680BC704700BFD800002022
:10048C0080B483B000AF7860044A7B68012142F8E5
:10049C00231000BF0C37BD4680BC7047D80000202D
:1004AC0080B582B000AF00237B6089E0494A7B684D
:1004BC0052F8232048497B6841F82320474A7B683F
:1004CC0052F8232043497B6841F823207B68002B9A
:1004DC000FD1434A7B6852F823309BB219464148EE
:1004EC0001F0ECFF034619463C4A7B6842F82310A6
:1004FC0021E07B68012B0FD1394A7B6852F82330FD
:10050C009BB21946384801F0D9FF03461946334AC5
:10051C007B6842F823100EE0314A7B6852F8233096
:10052C009BB21946304801F0C9FF034619462B4AC5
:10053C007B6842F82310274A7B6852F8232027490E
:10054C007B6851F823309A4237D1224A7B6852F8A3
:10055C00232021497B6851F823309A422DD11E4A21
:10056C007B6852F8232021497B6851F823309A424A
:10057C0015D0194A7B6852F823201C497B6841F836
:10058C0023201A4A7B6852F82330002B15D1184BC4
:10059C004FF4FA721A607868FFF772FF0DE0144B93
:1005AC001B68013B124A1360114B1B68002B04D1D2
:1005BC000E4A7B68012142F823107B6801337B6073
:1005CC007B68022B7FF772AF00BF00BF0837BD46B8
:1005DC0080BD00BF18000020240000200C0000206B
:1005EC0000000020000801400010014030000020F5
:1005FC003C00002080B582B000AF0346FB71FB7954
:10060C00032B4BD801A252F823F000BF2906000897
:10061C0049060008890600086906000801224021E5
:10062C00214801F062FF012220211F4801F05DFFEB
:10063C00012210211C4801F058FF30E0012240211A
:10064C00194801F052FF01222021174801F04DFFFB
:10065C0000221021144801F048FF20E00122402123
:10066C00114801F042FF002220210F4801F03DFF0C
:10067C00012210210C4801F038FF10E0002240212B
:10068C00094801F032FF01222021074801F02DFF1B
:10069C0001221021044801F028FF00E000BF00BF38
:1006AC000837BD4680BD00BF0008014080B582B050
:1006BC0000AF0346FB71FB79032B53D801A252F810
:1006CC0023F000BFE1060008050700084D070008ED
:1006DC002907000801224FF40071254801F005FF9D
:1006EC0001224FF48071224801F0FFFE012280218B
:1006FC001F4801F0FAFE36E001224FF400711C484D
:10070C0001F0F3FE01224FF48071194801F0EDFE67
:10071C0000228021164801F0E8FE24E001224FF46B
:10072C000071134801F0E1FE00224FF48071104873
:10073C0001F0DBFE012280210D4801F0D6FE12E013
:10074C0000224FF400710A4801F0CFFE01224FF451
:10075C008071074801F0C9FE01228021044801F094
:10076C00C4FE00E000BF00BF0837BD4680BD00BF1F
:10077C000008014080B582B000AF78607B68092B1F
:10078C0000F2808101A252F823F000BFC1070008DB
:10079C00090800085108000899080008E108000839
:1007AC002909000871090008B9090008010A0008A4
:1007BC00490A000800220121B54801F096FE0022EA
:1007CC000221B34801F091FE00220421B04801F04F
:1007DC008CFE00220821AE4801F087FE0022102179
:1007EC00AB4801F082FE00222021A94801F07DFED9
:1007FC0001224021A64801F078FE44E101220121AA
:10080C00A34801F072FE00220221A14801F06DFE06
:10081C00002204219E4801F068FE012208219C4818
:10082C0001F063FE01221021994801F05EFE0122C5
:10083C002021974801F059FE01224021944801F0F3
:10084C0054FE20E100220121914801F04EFE0022CD
:10085C0002218F4801F049FE012204218C4801F04D
:10086C0044FE002208218A4801F03FFE002210219C
:10087C00874801F03AFE01222021854801F035FE1F
:10088C0000224021824801F030FEFCE000220121D0
:10089C007F4801F02AFE002202217D4801F025FE4E
:1008AC00002204217A4801F020FE00220821784819
:1008BC0001F01BFE01221021754801F016FE0122E9
:1008CC002021734801F011FE00224021704801F0F4
:1008DC000CFED8E0012201216D4801F006FE002239
:1008EC0002216B4801F001FE00220421684801F04E
:1008FC00FCFD01220821664801F0F7FD01221021C0
:10090C00634801F0F2FD00222021614801F0EDFD69
:10091C00002240215E4801F0E8FDB4E000220121F4
:10092C005B4801F0E2FD01220221594801F0DDFD96
:10093C0000220421564801F0D8FD00220821544819
:10094C0001F0D3FD01221021514801F0CEFD00220F
:10095C0020214F4801F0C9FD002240214C4801F0F4
:10096C00C4FD90E000220121494801F0BEFD0122A6
:10097C000221474801F0B9FD00220421444801F04E
:10098C00B4FD00220821424801F0AFFD00221021E5
:10099C003F4801F0AAFD002220213D4801F0A5FDB1
:1009AC00002240213A4801F0A0FD6CE00022012118
:1009BC00374801F09AFD00220221354801F095FDDF
:1009CC0000220421324801F090FD01220821304818
:1009DC0001F08BFD012210212D4801F086FD012232
:1009EC0020212B4801F081FD01224021284801F0F3
:1009FC007CFD48E000220121254801F076FD002213
:100A0C000221234801F071FD00220421204801F04D
:100A1C006CFD002208211E4801F067FD0022102108
:100A2C001B4801F062FD00222021194801F05DFDF8
:100A3C0000224021164801F058FD24E0002201213B
:100A4C00134801F052FD00220221114801F04DFD26
:100A5C00002204210E4801F048FD002208210C4818
:100A6C0001F043FD01221021094801F03EFD002256
:100A7C002021074801F039FD00224021044801F0F3
:100A8C0034FD00E000BF00BF0837BD4680BD00BF8D
:100A9C00000C014080B582B000AF78607B68092BF8
:100AAC0000F2BC8101A252F823F000BFE10A000859
:100ABC00350B0008890B0008DD0B0008310C000811
:100ACC00850C0008D90C00082D0D0008810D0008BC
:100ADC00D50D000800228021D34801F006FD00222C
:100AEC004FF48071D04801F000FD00224FF40071EA
:100AFC00CD4801F0FAFC00224FF48061CA4801F0A5
:100B0C00F4FC00224FF40061C74801F0EEFC002217
:100B1C004FF48051C44801F0E8FC01224FF400511D
:100B2C00C14801F0E2FC7AE101228021BE4801F0CB
:100B3C00DCFC00224FF48071BB4801F0D6FC002293
:100B4C004FF40071B84801F0D0FC01224FF48061E1
:100B5C00B54801F0CAFC01224FF40061B24801F023
:100B6C00C4FC01224FF48051AF4801F0BEFC0122BD
:100B7C004FF40051AC4801F0B8FC50E10022802148
:100B8C00A94801F0B2FC00224FF48071A64801F094
:100B9C00ACFC01224FF40071A34801F0A6FC00222A
:100BAC004FF48061A04801F0A0FC00224FF40061DA
:100BBC009D4801F09AFC01224FF480519A4801F0B3
:100BCC0094FC00224FF40051974801F08EFC26E172
:100BDC0000228021944801F088FC00224FF480719F
:100BEC00914801F082FC00224FF400718E4801F014
:100BFC007CFC00224FF480618B4801F076FC0122D2
:100C0C004FF40061884801F070FC01224FF48051D0
:100C1C00854801F06AFC00224FF40051824801F033
:100C2C0064FCFCE0012280217F4801F05EFC002284
:100C3C004FF480717C4801F058FC00224FF4007195
:100C4C00794801F052FC01224FF48061764801F0A2
:100C5C004CFC01224FF40061734801F046FC002269
:100C6C004FF48051704801F040FC00224FF40051C9
:100C7C006D4801F03AFCD2E0002280216A4801F074
:100C8C0034FC01224FF48071674801F02EFC0022E5
:100C9C004FF40071644801F028FC00224FF480618D
:100CAC00614801F022FC01224FF400615E4801F022
:100CBC001CFC00224FF480515B4801F016FC002212
:100CCC004FF40051584801F010FCA8E0002280219C
:100CDC00554801F00AFC01224FF48071524801F092
:100CEC0004FC00224FF400714F4801F0FEFB00227F
:100CFC004FF480614C4801F0F8FB00224FF4006186
:100D0C00494801F0F2FB00224FF48051464801F0B3
:100D1C00ECFB00224FF40051434801F0E6FB7EE06F
:100D2C0000228021404801F0E0FB00224FF480714A
:100D3C003D4801F0DAFB00224FF400713A4801F013
:100D4C00D4FB01224FF48061374801F0CEFB012225
:100D5C004FF40061344801F0C8FB01224FF480517C
:100D6C00314801F0C2FB01224FF400512E4801F032
:100D7C00BCFB54E0002280212B4801F0B6FB002282
:100D8C004FF48071284801F0B0FB00224FF4007141
:100D9C00254801F0AAFB00224FF48061224801F0A3
:100DAC00A4FB00224FF400611F4801F09EFB0022BF
:100DBC004FF480511C4801F098FB00224FF4005175
:100DCC00194801F092FB2AE000228021164801F01C
:100DDC008CFB00224FF48071134801F086FB00223B
:100DEC004FF40071104801F080FB00224FF4806139
:100DFC000D4801F07AFB01224FF400610A4801F022
:100E0C0074FB00224FF48051074801F06EFB002266
:100E1C004FF40051044801F068FB00E000BF00BF34
:100E2C000837BD4680BD00BF000C014080B500AF47
:100E3C0000224FF48061054801F057FB01224FF46A
:100E4C000061024801F051FB00BF80BD0008014069
:100E5C0080B500AF01224FF48061054801F045FBDD
:100E6C0000224FF40061024801F03FFB00BF80BD3F
:100E7C000008014080B500AF00224FF480510548B6
:100E8C0001F033FB01224FF40051024801F02DFB1D
:100E9C0000BF80BD0008014080B500AF01224FF4B7
:100EAC008051054801F021FB00224FF4005102480B
:100EBC0001F01BFB00BF80BD0008014080B500AFF6
:100ECC0000224FF48041054801F00FFB01224FF442
:100EDC000041024801F009FB00BF80BD0008014041
:100EEC0080B500AF01224FF48041054801F0FDFAB6
:100EFC0000224FF40041024801F0F7FA00BF80BD18
:100F0C000008014080B582B000AF786039607B6822
:100F1C00013B7B603B68013B3B60FFF787FF7B68D5
:100F2C000C4A82FB03129210DB17D31A1846FFF7F8
:100F3C0021FCFFF79FFF3B68064A82FB03129210CD
:100F4C00DB17D31A1846FFF7A5FD00BF0837BD46BF
:100F5C0080BD00BF6766666680B582B000AF786002
:100F6C0039607B68013B7B603B68013B3B60FFF772
:100F7C006FFF7A68114B83FB02139910D317C91AB0
:100F8C000B469B000B445B00D11A0846FFF7F2FBA3
:100F9C00FFF782FF3A68094B83FB02139910D317B2
:100FAC00C91A0B469B000B445B00D11A0846FFF78D
:100FBC0071FD00BF0837BD4680BD00BF6766666621
:100FCC0080B582B000AF78607B68013B7B60FFF737
:100FDC0075FF7B68064A82FB03129210DB17D31A4B
:100FEC001846FFF7C7FB00BF0837BD4680BD00BFE2
:100FFC006766666680B582B000AF78607B68013B3F
:10100C007B60FFF76DFF7A68084B83FB0213991026
:10101C00D317C91A0B469B000B445B00D11A084628
:10102C00FFF738FD00BF0837BD4680BD67666666B2
:10103C0080B400AF0B4B00221A700B4B00221A70BD
:10104C000A4B00221A700A4B00221A70094B1B68BB
:10105C00094A1360094B1B68094A136000BFBD465F
:10106C0080BC7047F4000020F6000020F500002042
:10107C00FC00002040000020000100204400002063
:10108C00F800002080B500AF00F07CFE00F028F8DE
:10109C0000F0D8F800F060F800F0AAF80D4801F064
:1010AC00CFFE00F007FB322264210B4800F0CEFB90
:1010BC0064226E21094800F0C9FBFFF7B9FF00203C
:1010CC00FFF798FA00F020FC0121002001F03EFA15
:1010DC00F8E700BF04010020050400084D010008DA
:1010EC0080B590B000AF07F11803282200211846F4
:1010FC0003F08CF83B1D00221A605A609A60DA608B
:10110C001A610223BB610123BB621023FB62002323
:10111C007B6307F11803184601F034FA0346002BE1
:10112C0001D000F01BF90F237B600023BB60002370
:10113C00FB6000233B6100237B613B1D00211846B3
:10114C0001F0A0FC0346002B01D000F007F900BF12
:10115C004037BD4680BD000080B586B000AF07F1BA
:10116C00080300221A605A609A60DA603B4600223B
:10117C001A605A601D4B4FF080421A601B4B41F6AF
:10118C003F725A60194B00229A60184B0A22DA609F
:10119C00164B00221A61154B00229A61134801F07C
:1011AC00FFFD0346002B01D000F0D8F84FF480531C
:1011BC00BB6007F1080319460C4801F095FF034684
:1011CC00002B01D000F0CAF800233B6000237B60A9
:1011DC003B461946054802F061F90346002B01D045
:1011EC0000F0BCF800BF1837BD4680BD04010020DC
:1011FC0080B500AF114B124A1A60104B4FF41652C7
:10120C005A600E4B00229A600C4B0022DA600B4B9A
:10121C0000221A61094B0C225A61084B00229A6178
:10122C00064B0022DA61054802F0A2F90346002BB6
:10123C0001D000F093F800BF80BD00BF4C0100202E
:10124C000044004080B588B000AF07F110030022C5
:10125C001A605A609A60DA60354B9B69344A43F0E5
:10126C0010039361324B9B6903F01003FB60FB6826
:10127C002F4B9B692E4A43F0040393612C4B9B69C3
:10128C0003F00403BB60BB68294B9B69284A43F0FD
:10129C0008039361264B9B6903F008037B607B6812
:1012AC0001224FF6F071234801F01FF9002243F69A
:1012BC00FF71214801F019F94FF440433B610023C1
:1012CC007B610123BB6107F1100319461B4800F039
:1012DC007BFF02233B6100237B610123BB6107F190
:1012EC0010031946134800F06FFF4FF6F0733B6183
:1012FC0001237B610023BB610223FB6107F1100317
:10130C0019460C4800F060FF43F6FF733B61012364
:10131C007B610023BB610223FB6107F110031946BB
:10132C00054800F051FF00BF2037BD4680BD00BF0F
:10133C000010024000080140000C01400010014068
:10134C0080B582B000AF786000F096FB00F0F8F941
:10135C00FFF7A6F800BF0837BD4680BD80B400AFCC
:10136C0072B600BFFEE7000080B500AF0D4B1B78D6
:10137C00002B02D0012B09D011E00B4B1B68184637
:10138C00FFF71EFE074B01221A7008E0064B1B6884
:10139C001846FFF72FFE034B00221A7000BF00BF48
:1013AC0080BD00BFF40000204000002080B500AFDD
:1013BC000D4B1B78002B02D0012B09D011E00B4BED
:1013CC001B681846FFF7FCFD074B01221A7008E05A
:1013DC00064B1B681846FFF70DFE034B00221A70D4
:1013EC0000BF00BF80BD00BFF400002048000020FB
:1013FC0080B500AF0D4B1B78002B02D0012B09D010
:10140C0011E00B4B1B681846FFF7DAFD074B012266
:10141C001A7008E0064B1B681846FFF7EBFD034BF0
:10142C0000221A7000BF00BF80BD00BFF400002076
:10143C004400002080B500AF10212D4801F06DF85C
:10144C0080212B4801F069F80120FEF7FFFF0346CD
:10145C00012B10D1274B1B680133264A1360264BF6
:10146C001B680133244A1360224B1B68622B02DD7C
:10147C00204B01221A600220FEF7E8FF0346012BE5
:10148C0017D101224FF47C41194801F02EF8FFF7D7
:10149C00CFFD002000F09EFA012000F09BFA3222D2
:1014AC000121164800F0D2F964220121144800F001
:1014BC00CDF90020FEF7CAFF0346012B15D10122FE
:1014CC004FF47C710A4801F010F8002000F082FA09
:1014DC00012000F07FFA322201210A4800F0B6F90F
:1014EC0032220121084800F0B1F900BF80BD00BFD5
:1014FC0000080140400000204400002005040008C2
:10150C004D01000819150008B913000880B500AF8B
:10151C0020212D4801F001F84FF480712A4800F089
:10152C00FCFF0120FEF792FF0346012B10D1274B45
:10153C001B680133254A1360254B1B680133244A71
:10154C001360224B1B68622B02DD204B01221A60B8
:10155C000220FEF77BFF0346012B17D101224FF42B
:10156C007C41194800F0C1FFFFF762FD002000F03C
:10157C0031FA012000F02EFA32220121154800F038
:10158C0065F964220121144800F060F90020FEF78F
:10159C005DFF0346012B15D101224FF47C710A48E3
:1015AC0000F0A3FF002000F015FA012000F012FA61
:1015BC0032220121094800F049F932220121084860
:1015CC0000F044F900BF80BD000801404800002035
:1015DC0040000020050400084D010008F11500082A
:1015EC00FD13000880B500AF40212D4800F095FF99
:1015FC004FF400712A4800F090FF0120FEF726FFFF
:10160C000346012B10D1274B1B680133254A13606D
:10161C00254B1B680133244A1360234B1B68622B38
:10162C0002DD214B01221A600220FEF70FFF034658
:10163C00012B17D101224FF47C41194800F055FFC2
:10164C00FFF7F6FC002000F0C5F9012000F0C2F90C
:10165C0032220121154800F0F9F8642201211448C6
:10166C0000F0F4F80020FEF7F1FE0346012B15D133
:10167C0001224FF47C710A4800F037FF002000F083
:10168C00A9F9012000F0A6F932220121074800F047
:10169C00DDF864220121064800F0D8F800BF80BDB7
:1016AC000008014040000020440000200504000810
:1016BC004D01000880B483B000AF0023FB7134E00F
:1016CC00FA791E4913469B0013449B000B440022DD
:1016DC001A60FA79194913469B0013449B000B447A
:1016EC00043300221A60FA79144913469B00134400
:1016FC009B000B44083300221A60FA790F491346F9
:10170C009B0013449B000B440C3300221A70FA7993
:10171C000A4913469B0013449B000B4410334FF0B3
:10172C00FF321A60FB790133FB71FB79092BC7D9A6
:10173C0000BF00BF0C37BD4680BC70479401002031
:10174C0080B483B000AF0023FB7173E0FA793E499B
:10175C0013469B0013449B000B441B68002B3ED08C
:10176C00FA79394913469B0013449B000B4404330C
:10177C001B68002B33D1FA79334913469B00134471
:10178C009B000B440C331B78FA790133D8B22E49E9
:10179C0013469B0013449B000B440C3302461A70F7
:1017AC00FA79294913469B0013449B000B440833D8
:1017BC001B68002B3BD0FA79234913469B0013443A
:1017CC009B000B4408331B68FA79591E1E481346BC
:1017DC009B0013449B0003440433196027E0FA79FF
:1017EC00194913469B0013449B000B441B68002BA8
:1017FC001DD0FA79144913469B0013449B000B44EB
:10180C0004331B68002B12D0FA790F4913469B0046
:10181C0013449B000B4404331B68FA79591E0A4885
:10182C0013469B0013449B00034404331960FB795B
:10183C000133FB71FB79092B88D900BF00BF0C3732
:10184C00BD4680BC704700BF9401002080B487B0B7
:10185C0000AFF860B9607A600023FB7502E0FB7D95
:10186C000133FB75FA7D274913469B0013449B00FB
:10187C000B441B68002B02D0FB7D092BEFD9FB7DA1
:10188C00092B02D94FF0FF3337E0FA7D1D4913467F
:10189C009B0013449B000B44FA681A60BB68002B36
:1018AC0002D0BB685A1E00E00022F97D15480B4699
:1018BC009B000B449B00034404331A60FA7D1149CE
:1018CC0013469B0013449B000B4408337A681A6040
:1018DC00FA7D0C4913469B0013449B000B440C33BC
:1018EC0000221A70FA7DF97D064813469B001344BA
:1018FC009B00034410331960FB7D18461C37BD4612
:10190C0080BC70479401002080B582B000AF0023EA
:10191C00FB7154E0FA792E4913469B0013449B004B
:10192C000B440C331B78002B46D0FA79284913460C
:10193C009B0013449B000B441B689847FA7924497D
:10194C0013469B0013449B000B440C331B78FA7911
:10195C00013BD8B21E4913469B0013449B000B4419
:10196C000C3302461A70FA79194913469B0013443A
:10197C009B000B4408331B68002B19D1FA791449CE
:10198C0013469B0013449B000B440C331B78002B19
:10199C000ED1FA790E4913469B0013449B000B445D
:1019AC0004331B68002B03D1FB79184600F012F8A6
:1019BC00FB79184600F06EF8FB790133FB71FB796B
:1019CC00092BA7D900BF00BF0837BD4680BD00BF9B
:1019DC009401002080B483B000AF78607B68092B41
:1019EC0002D94FF0FF333FE022497A6813469B003F
:1019FC0013449B000B441B68002B02D14FF0FF33A8
:101A0C0032E01C497A6813469B0013449B000B443C
:101A1C0000221A6017497A6813469B0013449B00F6
:101A2C000B44043300221A6012497A6813469B0057
:101A3C0013449B000B44083300221A600D497A684A
:101A4C0013469B0013449B000B440C3300221A706A
:101A5C0008497A6813469B0013449B000B441033CF
:101A6C004FF0FF321A607B6818460C37BD4680BCBD
:101A7C00704700BF9401002080B400AF044B1B687A
:101A8C000A33034A136000BFBD4680BC704700BFD9
:101A9C00E400002080B58AB000AF0346FB71FA79F0
:101AAC0007F108031049184602F0B8FB03469AB236
:101ABC0007F108014FF47A730C4801F0A9FD0C4BA7
:101ACC001A6807F108030B49184602F0A7FB0346F6
:101ADC009AB207F108014FF47A73044801F098FDAB
:101AEC0000BF2837BD4680BDB44A00084C01002019
:101AFC00E4000020C04A000880B485B000AF154B4C
:101B0C009B69144A43F001039361124B9B6903F0E8
:101B1C000103BB60BB680F4BDB690E4A43F080537B
:101B2C00D3610C4BDB6903F080537B607B680A4B01
:101B3C005B68FB60FB6823F0E063FB60FB6843F0D1
:101B4C008063FB60044AFB68536000BF1437BD46DA
:101B5C0080BC7047001002400000014080B584B08A
:101B6C0000AF78607B681B68B3F1804F13D10C4BCE
:101B7C00DB690B4A43F00103D361094BDB6903F0CA
:101B8C000103FB60FB68002200211C2000F033FAEB
:101B9C001C2000F04CFA00BF1037BD4680BD00BFC2
:101BAC000010024080B588B000AF786007F11003D8
:101BBC0000221A605A609A60DA607B681B681F4AC0
:101BCC00934237D11E4BDB691D4A43F40033D3617A
:101BDC001B4BDB6903F40033FB60FB68184B9B6900
:101BEC00174A43F004039361154B9B6903F00403FC
:101BFC00BB60BB6804233B6102237B610323FB6155
:101C0C0007F1100319460F4800F0DEFA08233B6178
:101C1C0000237B610023BB6107F1100319460948BF
:101C2C0000F0D2FA00220021262000F0E4F9262050
:101C3C0000F0FDF900BF2037BD4680BD00440040D8
:101C4C00001002400008014080B400AFFEE780B4F1
:101C5C0000AFFEE780B400AFFEE780B400AFFEE754
:101C6C0080B400AFFEE780B400AF00BFBD4680BCBF
:101C7C00704780B400AF00BFBD4680BC704780B4D5
:101C8C0000AF00BFBD4680BC704780B500AF00F010
:101C9C00BFF800BF80BD000080B500AF024801F066
:101CAC001BF900BF80BD00BF0401002080B500AF50
:101CBC00024801F031FD00BF80BD00BF4C01002087
:101CCC0080B586B000AF7860144A154BD31A7B618F
:101CDC007B693B61134B1B68002B02D1114B124AE1
:101CEC001A60104B1A687B6813443A699A4207D2FF
:101CFC0002F062FA03460C221A604FF0FF3309E03F
:101D0C00084B1B68FB60074B1A687B681344054A39
:101D1C001360FB6818461837BD4680BD00280020AC
:101D2C0000040000E80000207002002080B400AF26
:101D3C0000BFBD4680BC7047FFF7F8FF0B480C494D
:101D4C000C4A002302E0D458C4500433C4188C420B
:101D5C00F9D3094A094C002301E013600432A24272
:101D6C00FBD302F02FFAFFF78DF97047000000202B
:101D7C00BC000020384B0008BC0000207002002082
:101D8C00FEE7000080B500AF084B1B68074A43F024
:101D9C0010031360032000F023F90F2000F008F863
:101DAC00FFF7AAFE0023184680BD00BF00200240AA
:101DBC0080B582B000AF7860124B1A68124B1B785A
:101DCC0019464FF47A73B3FBF1F3B2FBF3F31846F5
:101DDC0000F03BF90346002B01D001230EE07B6899
:101DEC000F2B0AD8002279684FF0FF3000F003F96E
:101DFC00064A7B681360002300E00123184608376D
:101E0C00BD4680BD4C000020540000205000002036
:101E1C0080B400AF054B1B781A46054B1B68134466
:101E2C00034A136000BFBD4680BC704754000020BD
:101E3C005C02002080B400AF024B1B681846BD4604
:101E4C0080BC70475C02002080B485B000AF786025
:101E5C007B6803F00703FB600C4BDB68BB60BA6864
:101E6C004FF6FF031340BB60FB681A02BB681343B9
:101E7C0043F0BF6343F40033BB60044ABB68D360D8
:101E8C0000BF1437BD4680BC704700BF00ED00E0BA
:101E9C0080B400AF044BDB681B0A03F00703184641
:101EAC00BD4680BC704700BF00ED00E080B483B03D
:101EBC0000AF0346FB7197F90730002B0BDBFB7966
:101ECC0003F01F02064997F907305B09012000FA5D
:101EDC0002F241F8232000BF0C37BD4680BC70478E
:101EEC0000E100E080B483B000AF03463960FB71C1
:101EFC0097F90730002B0ADB3B68DAB20C4997F9EB
:101F0C0007301201D2B20B4483F800230AE03B687D
:101F1C00DAB20849FB7903F00F03043B1201D2B289
:101F2C000B441A7600BF0C37BD4680BC704700BF0F
:101F3C0000E100E000ED00E080B489B000AFF86093
:101F4C00B9607A60FB6803F00703FB61FB69C3F1BE
:101F5C000703042B28BF0423BB61FB690433062B46
:101F6C0002D9FB69033B00E000237B614FF0FF3299
:101F7C00BB6902FA03F3DA43BB681A407B699A40E7
:101F8C004FF0FF317B6901FA03F3D9437B680B40B7
:101F9C00134318462437BD4680BC704780B582B0C9
:101FAC0000AF78607B68013BB3F1807F01D30123E4
:101FBC000FE00A4A7B68013B53600F214FF0FF3062
:101FCC00FFF790FF054B00229A60044B07221A6022
:101FDC00002318460837BD4680BD00BF10E000E066
:101FEC0080B582B000AF78607868FFF72DFF00BF36
:101FFC000837BD4680BD80B586B000AF0346B960DA
:10200C007A60FB7300237B61FFF742FF78617A688B
:10201C00B9687869FFF790FF024697F90F301146BF
:10202C001846FFF75FFF00BF1837BD4680BD80B56F
:10203C0082B000AF0346FB7197F907301846FFF7E3
:10204C0035FF00BF0837BD4680BD80B582B000AFFC
:10205C0078607868FFF7A2FF034618460837BD463C
:10206C0080BD80B485B000AF78600023FB737B68C3
:10207C0093F82130DBB2022B08D07B6804229A63E0
:10208C007B68002283F82020012320E07B681B68FA
:10209C001A687B681B6822F00E021A607B681B684A
:1020AC001A687B681B6822F001021A607B681A6C44
:1020BC007B68DB6B012101FA02F25A607B6801221A
:1020CC0083F821207B68002283F82020FB7B1846B4
:1020DC001437BD4680BC704780B584B000AF7860C3
:1020EC000023FB737B6893F82130DBB2022B05D005
:1020FC007B6804229A630123FB7351E07B681B68A5
:10210C001A687B681B6822F00E021A607B681B68D9
:10211C001A687B681B6822F001021A607B681B68D6
:10212C00224A934229D07B681B68214A934222D0D1
:10213C007B681B681F4A93421AD07B681B681E4A37
:10214C00934212D07B681B681C4A93420AD07B686E
:10215C001B681B4A934202D14FF480130EE04FF0E0
:10216C0080730BE04FF4803308E04FF4805305E0AC
:10217C004FF4807302E0102300E00123114A5360F6
:10218C007B68012283F821207B68002283F82020C1
:10219C007B685B6B002B03D07B685B6B7868984724
:1021AC00FB7B18461037BD4680BD00BF08000240BF
:1021BC001C00024030000240440002405800024023
:1021CC006C0002400000024080B48BB000AF78601D
:1021DC00396000237B6200233B6248E101227B6A69
:1021EC0002FA03F3FB613B681B68FA691340BB619D
:1021FC00BA69FB699A4240F037813B685B68A34A35
:10220C0093425ED0A14A934275D8A14A934258D0CA
:10221C009F4A93426FD89F4A934252D09D4A934211
:10222C0069D89D4A93424CD09B4A934263D89B4AAF
:10223C00934246D0994A93425DD8122B2AD8122B3E
:10224C0059D801A252F823F0CF220008A922000885
:10225C00BB220008FD22000803230008032300080A
:10226C0003230008032300080323000803230008AA
:10227C00032300080323000803230008032300089A
:10228C00032300080323000803230008B1220008DD
:10229C00C5220008824A934213D02CE03B68DB68CD
:1022AC003B6229E03B68DB6804333B6224E03B681B
:1022BC00DB6808333B621FE03B68DB680C333B6236
:1022CC001AE03B689B68002B02D104233B6213E0AD
:1022DC003B689B68012B05D108233B627B68FA693C
:1022EC001A6109E008233B627B68FA695A6103E0D2
:1022FC0000233B6200E000BFBB69FF2B01D87B6869
:10230C0001E07B6804337B61BB69FF2B02D87B6ADD
:10231C009B0002E07B6A083B9B003B617B691A686F
:10232C000F213B6901FA03F3DB431A40396A3B691D
:10233C0001FA03F31A437B691A603B685B6803F08C
:10234C008053002B00F09080564B9B69554A43F00C
:10235C0001039361534B9B6903F00103BB60BB68A2
:10236C00514A7B6A9B08023352F82330FB607B6A2C
:10237C0003F003039B000F2202FA03F3DB43FA681A
:10238C001340FB607B68494A93420DD07B68484AF6
:10239C00934207D07B68474A934201D1022304E061
:1023AC00032302E0012300E000237A6A02F0030217
:1023BC0092009340FA681343FB603B497B6A9B088D
:1023CC000233FA6841F823203B685B6803F48013FE
:1023DC00002B06D0384B9A683749BB6913438B6086
:1023EC0006E0354B9A68BB69DB43334913408B607D
:1023FC003B685B6803F40013002B06D02E4BDA68A5
:10240C002D49BB691343CB6006E02B4BDA68BB69E3
:10241C00DB4329491340CB603B685B6803F4003312
:10242C00002B06D0244B5A682349BB6913434B60DD
:10243C0006E0214B5A68BB69DB431F4913404B60D4
:10244C003B685B6803F48033002B06D01A4B1A6888
:10245C001949BB6913430B6006E0174B1A68BB693B
:10246C00DB43154913400B607B6A01337B623B688D
:10247C001A687B6A22FA03F3002B7FF4AFAE00BF1D
:10248C0000BF2C37BD4680BC704700BF0000321027
:10249C00000031100000221000002110000012106A
:1024AC000000111000100240000001400008014023
:1024BC00000C0140001001400004014080B485B0C4
:1024CC0000AF78600B467B807B689A687B881340F2
:1024DC00002B02D00123FB7301E00023FB73FB7B79
:1024EC0018461437BD4680BC704780B483B000AF2B
:1024FC0078600B467B8013467B707B78002B03D077
:10250C007A887B681A6103E07B881A047B681A61FD
:10251C0000BF0C37BD4680BC704780B485B000AF9F
:10252C0078600B467B807B68DB68FB607A88FB6895
:10253C0013401A04FB68D9437B880B401A437B6811
:10254C001A6100BF1437BD4680BC704780B483B09D
:10255C0000AF78600B46FB70094B1B69084A23F0EF
:10256C0004031361FB78012B01D130BF02E040BFA3
:10257C0020BF20BF00BF0C37BD4680BC704700BFDA
:10258C0000ED00E080B586B000AF78607B68002B72
:10259C0001D101236CE27B681B6803F00103002B63
:1025AC0000F08780924B5B6803F00C03042B0CD07B
:1025BC008F4B5B6803F00C03082B12D18C4B5B68C0
:1025CC0003F48033B3F5803F0BD1894B1B6803F4C4
:1025DC000033002B6CD07B685B68002B68D1012327
:1025EC0046E27B685B68B3F5803F06D1804B1B6885
:1025FC007F4A43F4803313602EE07B685B68002BCA
:10260C000CD17B4B1B687A4A23F480331360784BD4
:10261C001B68774A23F4802313601DE07B685B689A
:10262C00B3F5A02F0CD1724B1B68714A43F4802375
:10263C0013606F4B1B686E4A43F4803313600BE0DE
:10264C006B4B1B686A4A23F480331360684B1B681E
:10265C00674A23F4802313607B685B68002B13D0DC
:10266C00FFF7E8FB386108E0FFF7E4FB02463B6943
:10267C00D31A642B01D90323FAE15D4B1B6803F4D5
:10268C000033002BF0D014E0FFF7D4FB386108E0E6
:10269C00FFF7D0FB02463B69D31A642B01D9032305
:1026AC00E6E1534B1B6803F40033002BF0D100E040
:1026BC0000BF7B681B6803F00203002B63D04C4BFC
:1026CC005B6803F00C03002B0BD0494B5B6803F0E9
:1026DC000C03082B1CD1464B5B6803F48033002B96
:1026EC0016D1434B1B6803F00203002B05D07B680B
:1026FC001B69012B01D00123BAE13D4B1B6823F070
:10270C00F8027B685B69DB00394913430B603AE0E4
:10271C007B681B69002B20D0364B01221A60FFF717
:10272C0089FB386108E0FFF785FB02463B69D31A49
:10273C00022B01D903239BE12D4B1B6803F00203F1
:10274C00002BF0D02A4B1B6823F0F8027B685B69E6
:10275C00DB00274913430B6015E0264B00221A605F
:10276C00FFF768FB386108E0FFF764FB02463B6942
:10277C00D31A022B01D903237AE11D4B1B6803F0FA
:10278C000203002BF0D17B681B6803F00803002BBD
:10279C003AD07B689B69002B19D0174B01221A6029
:1027AC00FFF748FB386108E0FFF744FB02463B6942
:1027BC00D31A022B01D903235AE10D4B5B6A03F0A8
:1027CC000203002BF0D0012000F0CCFA1CE00A4BE5
:1027DC0000221A60FFF72EFB38610FE0FFF72AFB8F
:1027EC0002463B69D31A022B08D9032340E100BFF0
:1027FC000010024000004242800442429E4B5B6A41
:10280C0003F00203002BE9D17B681B6803F004037F
:10281C00002B00F0A6800023FB75974BDB6903F0BF
:10282C008053002B0DD1944BDB69934A43F08053BA
:10283C00D361914BDB6903F08053BB60BB68012310
:10284C00FB758E4B1B6803F48073002B18D18B4BDC
:10285C001B688A4A43F480731360FFF7EBFA386104
:10286C0008E0FFF7E7FA02463B69D31A642B01D95B
:10287C000323FDE0814B1B6803F48073002BF0D025
:10288C007B68DB68012B06D17B4B1B6A7A4A43F0D1
:10289C00010313622DE07B68DB68002B0CD1764BB7
:1028AC001B6A754A23F001031362734B1B6A724A4D
:1028BC0023F0040313621CE07B68DB68052B0CD14E
:1028CC006D4B1B6A6C4A43F0040313626A4B1B6A20
:1028DC00694A43F0010313620BE0674B1B6A664ABB
:1028EC0023F001031362644B1B6A634A23F0040355
:1028FC0013627B68DB68002B15D0FFF79BFA3861FD
:10290C000AE0FFF797FA02463B69D31A41F2883284
:10291C00934201D90323ABE0574B1B6A03F002032C
:10292C00002BEED014E0FFF785FA38610AE0FFF7D0
:10293C0081FA02463B69D31A41F28832934201D99B
:10294C00032395E04C4B1B6A03F00203002BEED1E2
:10295C00FB7D012B05D1484BDB69474A23F08053A3
:10296C00D3617B68DB69002B00F08180424B5B6894
:10297C0003F00C03082B61D07B68DB69022B46D17A
:10298C003F4B00221A60FFF755FA386108E0FFF759
:10299C0051FA02463B69D31A022B01D9032367E093
:1029AC00354B1B6803F00073002BF0D17B681B6A5E
:1029BC00B3F5803F08D1304B5B6823F400327B6861
:1029CC009B682D4913434B602B4B5B6823F47412AB
:1029DC007B68196A7B685B6A0B43274913434B601E
:1029EC00274B01221A60FFF725FA386108E0FFF740
:1029FC0021FA02463B69D31A022B01D9032337E093
:102A0C001D4B1B6803F00073002BF0D02FE01C4B08
:102A1C0000221A60FFF70EFA386108E0FFF70AFA95
:102A2C0002463B69D31A022B01D9032320E0124B37
:102A3C001B6803F00073002BF0D118E07B68DB6996
:102A4C00012B01D1012313E00B4B5B68FB60FB688E
:102A5C0003F480327B681B6A9A4206D1FB6803F44C
:102A6C0070127B685B6A9A4201D0012300E000235C
:102A7C0018461837BD4680BD00100240007000405B
:102A8C006000424280B584B000AF786039607B68EA
:102A9C00002B01D10123D0E06A4B1B6803F0070324
:102AAC003A689A4210D9674B1B6823F007026549B4
:102ABC003B6813430B60634B1B6803F007033A68D6
:102ACC009A4201D00123B8E07B681B6803F0020333
:102ADC00002B20D07B681B6803F00403002B05D06F
:102AEC00594B5B68584A43F4E06353607B681B683E
:102AFC0003F00803002B05D0534B5B68524A43F498
:102B0C0060535360504B5B6823F0F0027B689B680A
:102B1C004D4913434B607B681B6803F00103002B8A
:102B2C0040D07B685B68012B07D1474B1B6803F4D3
:102B3C000033002B15D101237FE07B685B68022BEF
:102B4C0007D1414B1B6803F00073002B09D1012303
:102B5C0073E03D4B1B6803F00203002B01D10123F2
:102B6C006BE0394B5B6823F003027B685B6836498A
:102B7C0013434B60FFF75EF9F8600AE0FFF75AF970
:102B8C000246FB68D31A41F28832934201D90323DF
:102B9C0053E02D4B5B6803F00C027B685B689B0079
:102BAC009A42EBD1274B1B6803F007033A689A4211
:102BBC0010D2244B1B6823F0070222493B681343B5
:102BCC000B60204B1B6803F007033A689A4201D054
:102BDC00012332E07B681B6803F00403002B08D050
:102BEC00194B5B6823F4E0627B68DB68164913437E
:102BFC004B607B681B6803F00803002B09D0124B59
:102C0C005B6823F460527B681B69DB000E4913433D
:102C1C004B6000F021F802460B4B5B681B0903F07C
:102C2C000F030A49CB5C22FA03F3094A1360094BE0
:102C3C001B681846FFF7BCF8002318461037BD4632
:102C4C0080BD00BF0020024000100240D04A0008A6
:102C5C004C0000205000002080B487B000AF00234F
:102C6C00FB600023BB6000237B6100237B6000239F
:102C7C003B611E4B5B68FB60FB6803F00C03042B91
:102C8C0002D0082B03D027E0194B3B6127E0FB68EF
:102C9C009B0C03F00F03174AD35C7B60FB6803F4B7
:102CAC008033002B10D0114B5B685B0C03F00103DD
:102CBC00114AD35CBB607B680D4A02FB03F2BB6814
:102CCC00B2FBF3F37B6104E07B680C4A02FB03F379
:102CDC007B617B693B6102E0054B3B6100BF3B695B
:102CEC0018461C37BD4680BC704700BF0010024020
:102CFC0000127A00E84A0008F84A000800093D0072
:102D0C0080B400AF024B1B681846BD4680BC7047B0
:102D1C004C00002080B500AFFFF7F2FF0246054BD8
:102D2C005B681B0A03F007030349CB5C22FA03F32D
:102D3C00184680BD00100240E04A000880B500AF84
:102D4C00FFF7DEFF0246054B5B68DB0A03F0070367
:102D5C000349CB5C22FA03F3184680BD00100240F5
:102D6C00E04A000880B485B000AF78600A4B1B685D
:102D7C000A4AA2FB03235B0A7A6802FB03F3FB609B
:102D8C0000BFFB685A1EFA60002BF9D100BF00BFD0
:102D9C001437BD4680BC70474C000020D34D6210E8
:102DAC0080B582B000AF78607B68002B01D1012325
:102DBC0041E07B6893F83D30DBB2002B06D17B6899
:102DCC00002283F83C207868FEF7C8FE7B6802225C
:102DDC0083F83D207B681A687B68043319461046DB
:102DEC0000F06EFA7B68012283F846207B68012292
:102DFC0083F83E207B68012283F83F207B68012208
:102E0C0083F840207B68012283F841207B680122F3
:102E1C0083F842207B68012283F843207B680122DF
:102E2C0083F844207B68012283F845207B680122CB
:102E3C0083F83D20002318460837BD4680BD0000AE
:102E4C0080B485B000AF78607B6893F83D30DBB21E
:102E5C00012B01D0012335E07B68022283F83D2051
:102E6C007B681B68DA687B681B6842F00102DA60D9
:102E7C007B681B68164A934209D07B681B68B3F1C8
:102E8C00804F04D07B681B68124A934211D17B6837
:102E9C001B689B6803F00703FB60FB68062B10D0D4
:102EAC007B681B681A687B681B6842F001021A6019
:102EBC0007E07B681B681A687B681B6842F001029C
:102ECC001A60002318461437BD4680BC704700BFFB
:102EDC00002C01400004004080B582B000AF786047
:102EEC007B681B681B6903F00203022B22D17B68F1
:102EFC001B68DB6803F00203022B1BD17B681B6889
:102F0C006FF002021A617B6801221A777B681B68DA
:102F1C009B6903F00303002B03D0786800F0B4F92D
:102F2C0005E0786800F0A7F9786800F0B6F97B68DE
:102F3C0000221A777B681B681B6903F00403042BBF
:102F4C0022D17B681B68DB6803F00403042B1BD1C4
:102F5C007B681B686FF004021A617B6802221A7787
:102F6C007B681B689B6903F44073002B03D0786863
:102F7C0000F08AF905E0786800F07DF9786800F0D7
:102F8C008CF97B6800221A777B681B681B6903F03D
:102F9C000803082B22D17B681B68DB6803F008034D
:102FAC00082B1BD17B681B686FF008021A617B68C9
:102FBC0004221A777B681B68DB6903F00303002B80
:102FCC0003D0786800F060F905E0786800F053F9F8
:102FDC00786800F062F97B6800221A777B681B68BE
:102FEC001B6903F01003102B22D17B681B68DB6874
:102FFC0003F01003102B1BD17B681B686FF01002C1
:10300C001A617B6808221A777B681B68DB6903F4FA
:10301C004073002B03D0786800F036F905E078682F
:10302C0000F029F9786800F038F97B6800221A77EB
:10303C007B681B681B6903F00103012B0ED17B68B5
:10304C001B68DB6803F00103012B07D17B681B684D
:10305C006FF001021A617868FEF772F97B681B68E1
:10306C001B6903F08003802B0ED17B681B68DB6827
:10307C0003F08003802B07D17B681B686FF0800204
:10308C001A61786800F06BFA7B681B681B6903F0A7
:10309C004003402B0ED17B681B68DB6803F04003B8
:1030AC00402B07D17B681B686FF040021A6178686F
:1030BC0000F0FCF87B681B681B6903F02003202BD5
:1030CC000ED17B681B68DB6803F02003202B07D133
:1030DC007B681B686FF020021A61786800F036FA82
:1030EC0000BF0837BD4680BD80B584B000AF7860A6
:1030FC0039600023FB737B6893F83C30012B01D1C2
:10310C000223B4E07B68012283F83C207B68022216
:10311C0083F83D207B681B689B68BB60BB6823F011
:10312C007703BB60BB6823F47F43BB607B681B6881
:10313C00BA689A603B681B68B3F5005F3ED0B3F584
:10314C00005F00F28780B3F5805F00F08680B3F5F6
:10315C00805F7FD8702B1AD0702B7BD8602B50D00F
:10316C00602B77D8502B3CD0502B73D8402B58D099
:10317C00402B6FD8302B64D0302B6BD8202B60D0E9
:10318C00202B67D8002B5CD0102B5AD062E07B68C8
:10319C0018683B6899683B685A683B68DB6800F0C4
:1031AC005EF97B681B689B68BB60BB6843F0770368
:1031BC00BB607B681B68BA689A604FE07B681868D4
:1031CC003B6899683B685A683B68DB6800F047F9D4
:1031DC007B681B689A687B681B6842F480429A6023
:1031EC003CE07B6818683B6859683B68DB681A46AA
:1031FC0000F0BEF87B681B685021184600F015F9EA
:10320C002CE07B6818683B6859683B68DB681A4699
:10321C0000F0DCF87B681B686021184600F005F9AB
:10322C001CE07B6818683B6859683B68DB681A4689
:10323C0000F09EF87B681B684021184600F0F5F8FA
:10324C000CE07B681A683B681B681946104600F056
:10325C00ECF803E00123FB7300E000BF7B68012264
:10326C0083F83D207B68002283F83C20FB7B1846CA
:10327C001037BD4680BD80B483B000AF786000BF0E
:10328C000C37BD4680BC704780B483B000AF78600B
:10329C0000BF0C37BD4680BC704780B483B000AF14
:1032AC00786000BF0C37BD4680BC704780B483B0DB
:1032BC0000AF786000BF0C37BD4680BC7047000083
:1032CC0080B485B000AF786039607B681B68FB60A8
:1032DC007B68254A934207D07B68B3F1804F03D0BB
:1032EC007B68224A934208D1FB6823F07003FB6091
:1032FC003B685B68FA681343FB607B681A4A93422D
:10330C0007D07B68B3F1804F03D07B68174A934298
:10331C0008D1FB6823F44073FB603B68DB68FA68F8
:10332C001343FB60FB6823F080023B685B6913432B
:10333C00FB607B68FA681A603B689A687B68DA62A3
:10334C003B681A687B689A627B68074A934203D190
:10335C003B681A697B681A637B6801225A6100BF5B
:10336C001437BD4680BC7047002C0140000400405F
:10337C0080B487B000AFF860B9607A60FB681B6AF4
:10338C007B61FB681B6A23F00102FB681A62FB6815
:10339C009B693B613B6923F0F0033B617B681B013C
:1033AC003A6913433B617B6923F00A037B617A69B9
:1033BC00BB6813437B61FB683A699A61FB687A6965
:1033CC001A6200BF1C37BD4680BC704780B487B002
:1033DC0000AFF860B9607A60FB681B6A7B61FB68C0
:1033EC001B6A23F01002FB681A62FB689B693B6145
:1033FC003B6923F470433B617B681B033A691343BD
:10340C003B617B6923F0A0037B61BB681B017A697C
:10341C0013437B61FB683A699A61FB687A691A62AB
:10342C0000BF1C37BD4680BC704780B485B000AF70
:10343C00786039607B689B68FB60FB6823F07003E5
:10344C00FB603A68FB68134343F00703FB607B683F
:10345C00FA689A6000BF1437BD4680BC704780B4D0
:10346C0087B000AFF860B9607A603B60FB689B681E
:10347C007B617B6923F47F437B613B681A027B6829
:10348C001A43BB6813437A6913437B61FB687A69FF
:10349C009A6000BF1C37BD4680BC704780B485B0B5
:1034AC0000AF786039607B6893F83C30012B01D118
:1034BC00022341E07B68012283F83C207B680222D6
:1034CC0083F83D207B681B685B68FB607B681B682E
:1034DC009B68BB60FB6823F07003FB603B681B6858
:1034EC00FA681343FB607B681B68FA685A607B6858
:1034FC001B68144A934209D07B681B68B3F1804F58
:10350C0004D07B681B68104A93420CD1BB6823F033
:10351C008003BB603B685B68BA681343BB607B6825
:10352C001B68BA689A607B68012283F83D207B682F
:10353C00002283F83C20002318461437BD4680BC7B
:10354C00704700BF002C01400004004080B483B0E1
:10355C0000AF786000BF0C37BD4680BC704780B4AC
:10356C0083B000AF786000BF0C37BD4680BC70479D
:10357C0080B582B000AF78607B68002B01D101234D
:10358C0042E07B6893F84130DBB2002B06D17B68BC
:10359C00002283F840207868FEF704FB7B68242225
:1035AC0083F841207B681B68DA687B681B6822F40F
:1035BC000052DA60786800F071FD7B681B681A694C
:1035CC007B681B6822F490421A617B681B685A69FD
:1035DC007B681B6822F02A025A617B681B68DA68D8
:1035EC007B681B6842F40052DA607B6800225A64E4
:1035FC007B68202283F841207B68202283F84220BC
:10360C007B6800225A63002318460837BD4680BDEC
:10361C0080B58AB002AFF860B9603B601346FB809E
:10362C0000237B61FB6893F84130DBB2202B6DD11A
:10363C00BB68002B02D0FB88002B01D1012366E074
:10364C00FB6800225A64FB68212283F84120FEF7B4
:10365C00F1FB7861FB68FA889A84FB68FA88DA8453
:10366C00FB689B68B3F5805F08D1FB681B69002B76
:10367C0004D10023FB61BB68BB6103E0BB68FB6149
:10368C000023BB612AE03B6800937B690022802108
:10369C00F86800F0F9FA0346002B01D0032336E05A
:1036AC00FB69002B0BD1BB691B881A46FB681B6896
:1036BC00C2F308025A60BB690233BB6107E0FB69C5
:1036CC001A78FB681B685A60FB690133FB61FB6865
:1036DC00DB8C9BB2013B9AB2FB68DA84FB68DB8C17
:1036EC009BB2002BCFD13B6800937B690022402119
:1036FC00F86800F0C9FA0346002B01D0032306E05A
:10370C00FB68202283F84120002300E002231846A6
:10371C002037BD4680BD000080B5BAB000AF7860E0
:10372C007B681B681B68C7F8E4307B681B68DB6828
:10373C00C7F8E0307B681B685B69C7F8DC30002396
:10374C00C7F8D8300023C7F8D430D7F8E43003F0EA
:10375C000F03C7F8D830D7F8D830002B0FD1D7F8D3
:10376C00E43003F02003002B09D0D7F8E03003F04D
:10377C002003002B03D0786800F0D1FB5BE2D7F874
:10378C00D830002B00F0DE80D7F8DC3003F00103DA
:10379C00002B06D1D7F8E03003F49073002B00F027
:1037AC00D180D7F8E43003F00103002B0BD0D7F80D
:1037BC00E03003F48073002B05D07B685B6C43F026
:1037CC0001027B685A64D7F8E43003F00403002B41
:1037DC000BD0D7F8DC3003F00103002B05D07B684D
:1037EC005B6C43F002027B685A64D7F8E43003F058
:1037FC000203002B0BD0D7F8DC3003F00103002BB5
:10380C0005D07B685B6C43F004027B685A64D7F884
:10381C00E43003F00803002B11D0D7F8E03003F0AC
:10382C002003002B05D1D7F8DC3003F00103002B6B
:10383C0005D07B685B6C43F008027B685A647B683C
:10384C005B6C002B00F0F281D7F8E43003F020031E
:10385C00002B08D0D7F8E03003F02003002B02D067
:10386C00786800F05CFB7B681B685B6903F04003C5
:10387C00002B14BF01230023DBB2C7F8D4307B68C4
:10388C005B6C03F00803002B03D1D7F8D430002B6A
:10389C004FD0786800F066FA7B681B685B6903F0B0
:1038AC004003002B41D07B681B681433C7F89C3055
:1038BC00D7F89C3053E8003FC7F89830D7F89830C9
:1038CC0023F04003C7F8D0307B681B681433D7F85B
:1038DC00D020C7F8A820C7F8A430D7F8A410D7F880
:1038EC00A82041E80023C7F8A030D7F8A030002B5F
:1038FC00D9D17B68DB6B002B13D07B68DB6B7E4AEA
:10390C005A637B68DB6B1846FEF7E6FB0346002B1D
:10391C0016D07B68DB6B5B6B7A68D26B1046984772
:10392C000EE0786800F09CF90AE0786800F098F9ED
:10393C0006E0786800F094F97B6800225A6475E11F
:10394C0000BF73E17B681B6B012B40F04F81D7F8F4
:10395C00E43003F01003002B00F04881D7F8E0307E
:10396C0003F01003002B00F041810023BB607B6847
:10397C001B681B68BB607B681B685B68BB60BB68B3
:10398C007B681B685B6903F04003002B00F0B6807A
:10399C007B68DB6B1B685B68A7F8BE30B7F8BE3082
:1039AC00002B00F045817B689B8DB7F8BE209A42B6
:1039BC0080F03E817B68B7F8BE20DA857B68DB6BD4
:1039CC009B69202B00F088807B681B680C33C7F840
:1039DC008830D7F8883053E8003FC7F88430D7F8E0
:1039EC00843023F48073C7F8B8307B681B680C33C1
:1039FC00D7F8B820C7F89420C7F89030D7F89010B3
:103A0C00D7F8942041E80023C7F88C30D7F88C30D5
:103A1C00002BD9D17B681B6814337B677B6F53E811
:103A2C00003F3B673B6F23F00103C7F8B4307B6862
:103A3C001B681433D7F8B420C7F88020FB67F96FE4
:103A4C00D7F8802041E80023BB67BB6F002BE1D186
:103A5C007B681B6814333B663B6E53E8003FFB6589
:103A6C00FB6D23F04003C7F8B0307B681B68143340
:103A7C00D7F8B020FA66BB66B96EFA6E41E800233F
:103A8C007B667B6E002BE3D17B68202283F842207F
:103A9C007B6800221A637B681B680C33FB64FB6C2D
:103AAC0053E8003FBB64BB6C23F01003C7F8AC3089
:103ABC007B681B680C33D7F8AC20BA657B65796DD5
:103ACC00BA6D41E800233B653B6D002BE3D17B686D
:103ADC00DB6B1846FEF7C5FA7B6802225A637B68DB
:103AEC009A8D7B68DB8D9BB2D31A9BB21946786892
:103AFC0000F0BFF89CE000BF353E00087B689A8D53
:103B0C007B68DB8D9BB2D31AA7F8CE307B68DB8D3C
:103B1C009BB2002B00F08E80B7F8CE30002B00F05B
:103B2C0089807B681B680C33BB63BB6B53E8003F1D
:103B3C007B637B6B23F49073C7F8C8307B681B687E
:103B4C000C33D7F8C8207A643B64396C7A6C41E842
:103B5C000023FB63FB6B002BE3D17B681B681433E6
:103B6C007B627B6A53E8003F3B623B6A23F00103B4
:103B7C00C7F8C4307B681B681433D7F8C4203A6389
:103B8C00FB62F96A3A6B41E80023BB62BB6A002B0B
:103B9C00E3D17B68202283F842207B6800221A63E1
:103BAC007B681B680C333B613B6953E8003FFB604F
:103BBC00FB6823F01003C7F8C0307B681B680C331C
:103BCC00D7F8C020FA61BB61B969FA6941E80023F2
:103BDC007B617B69002BE3D17B6802225A63B7F8C7
:103BEC00CE301946786800F044F823E0D7F8E4307A
:103BFC0003F08003002B09D0D7F8E03003F08003EA
:103C0C00002B03D0786800F023F914E0D7F8E430E7
:103C1C0003F04003002B0ED0D7F8E03003F0400344
:103C2C00002B08D0786800F062F904E000BF02E0D5
:103C3C0000BF00E000BFE837BD4680BD80B483B054
:103C4C0000AF786000BF0C37BD4680BC704780B4B5
:103C5C0083B000AF786000BF0C37BD4680BC7047A6
:103C6C0080B483B000AF786000BF0C37BD4680BC19
:103C7C00704780B483B000AF78600B467B8000BF88
:103C8C000C37BD4680BC704780B590B000AFF86073
:103C9C00B9603B601346FB7150E0BB6CB3F1FF3F66
:103CAC004CD0BB6C002B07D0FEF7C4F802463B6827
:103CBC00D31ABA6C9A4241D2FB681B680C33BB62B4
:103CCC00BB6A53E8003F7B627B6A23F4D073FB63CF
:103CDC00FB681B680C33FA6B7A633B63396B7A6B4A
:103CEC0041E80023FB62FB6A002BE5D1FB681B68F3
:103CFC0014337B617B6953E8003F3B613B6923F0E4
:103D0C000103BB63FB681B681433BA6B3A62FB613B
:103D1C00F9693A6A41E80023BB61BB69002BE5D124
:103D2C00FB68202283F84120FB68202283F8422084
:103D3C00FB68002283F8402003230FE0FB681B681C
:103D4C001A68BB681340BA689A420CBF012300235F
:103D5C00DBB21A46FB799A429FD0002318464037B3
:103D6C00BD4680BD80B495B000AF78607B681B68A1
:103D7C000C337B637B6B53E8003F3B633B6B23F45F
:103D8C009073FB647B681B680C33FA6C3A64FB63BE
:103D9C00F96B3A6C41E80023BB63BB6B002BE5D19C
:103DAC007B681B6814333B623B6A53E8003FFB6142
:103DBC00FB6923F00103BB647B681B681433BA6C8A
:103DCC00FA62BB62B96AFA6A41E800237B627B6AD9
:103DDC00002BE5D17B681B6B012B19D17B681B6811
:103DEC000C33FB60FB6853E8003FBB60BB6823F0FF
:103DFC0010037B647B681B680C337A6CBA617B6143
:103E0C007969BA6941E800233B613B69002BE5D134
:103E1C007B68202283F842207B6800221A6300BF53
:103E2C005437BD4680BC704780B584B000AF786015
:103E3C007B685B6AFB60FB680022DA85FB6800220A
:103E4C00DA84F868FFF70CFF00BF1037BD4680BD61
:103E5C0080B485B000AF78607B6893F84130DBB2FA
:103E6C00212B3ED17B689B68B3F5805F14D17B68B6
:103E7C001B69002B10D17B681B6AFB60FB681B88DD
:103E8C001A467B681B68C2F308025A607B681B6A7F
:103E9C009A1C7B681A6208E07B681B6A591C7A685A
:103EAC0011621A787B681B685A607B68DB8C9BB24A
:103EBC00013B9BB27A681946D184002B0FD17B68E9
:103ECC001B68DA687B681B6822F08002DA607B680A
:103EDC001B68DA687B681B6842F04002DA600023DA
:103EEC0000E0022318461437BD4680BC704780B5ED
:103EFC0082B000AF78607B681B68DA687B681B68EF
:103F0C0022F04002DA607B68202283F84120786836
:103F1C00FFF794FE002318460837BD4680BD80B5D8
:103F2C008CB000AF78607B6893F84230DBB2222B08
:103F3C0040F0AE807B689B68B3F5805F17D17B68DF
:103F4C001B69002B13D10023FB627B689B6ABB624D
:103F5C007B681B685B689BB2C3F308039AB2BB6AAD
:103F6C001A807B689B6A9A1C7B689A6226E07B6845
:103F7C009B6AFB620023BB627B689B68B3F5805F26
:103F8C0007D07B689B68002B0AD17B681B69002BD0
:103F9C0006D17B681B685B68DAB2FB6A1A7008E0B2
:103FAC007B681B685B68DBB203F07F03DAB2FB6AE9
:103FBC001A707B689B6A5A1C7B689A627B68DB8DE3
:103FCC009BB2013B9BB27A681946D185002B5DD11F
:103FDC007B681B68DA687B681B6822F02002DA6059
:103FEC007B681B68DA687B681B6822F48072DA6075
:103FFC007B681B685A697B681B6822F001025A6156
:10400C007B68202283F842207B6800225A637B68FD
:10401C001B6B012B35D17B6800221A637B681B68F4
:10402C000C337B617B6953E8003F3B613B6923F0B8
:10403C0010037B627B681B680C337A6A3A62FB6103
:10404C00F9693A6A41E80023BB61BB69002BE5D1F1
:10405C007B681B681B6803F01003102B0AD100232C
:10406C00FB607B681B681B68FB607B681B685B687C
:10407C00FB60FB687B689B8D19467868FFF7F9FD40
:10408C0002E07868FFF7E3FD002302E0002300E084
:10409C00022318463037BD4680BD000080B584B081
:1040AC0000AF78607B681B681B6923F440517B6808
:1040BC00DA687B681B680A431A617B689A687B68BC
:1040CC001B691A437B685B691343BB607B681B6885
:1040DC00DB6823F4B05323F00C037A681268B968D8
:1040EC000B43D3607B681B685B6923F440717B686E
:1040FC009A697B681B680A435A617B681B682C4A67
:10410C00934203D1FEF71AFEF86002E0FEF702FEBE
:10411C00F860FA6813469B0013449A001A447B68B3
:10412C005B689B00B2FBF3F3224AA2FB03235B09FF
:10413C001901FA6813469B0013449A001A447B68D1
:10414C005B689B00B2FBF3F21A4BA3FB02035B0907
:10415C00642000FB03F3D31A1B013233154AA2FB74
:10416C0003235B0903F0F0031944FA6813469B0020
:10417C0013449A001A447B685B689B00B2FBF3F211
:10418C000C4BA3FB02035B09642000FB03F3D31A63
:10419C001B013233074AA2FB03235B0903F00F0216
:1041AC007B681B680A449A6000BF1037BD4680BD0F
:1041BC00003801401F85EB51014B1868704700BF58
:1041CC005800002070B500260C4D0D4C641BA4103B
:1041DC00A64209D100F05CFC00260A4D0A4C641B77
:1041EC00A410A64205D170BD55F8043B9847013682
:1041FC00EEE755F8043B98470136F2E7304B0008E0
:10420C00304B0008304B0008344B00080346024486
:10421C00934200D1704703F8011BF9E70EB46FF01D
:10422C00004100B59CB01DAB029006900791049123
:10423C000848094953F8042B0591006802A9019319
:10424C0000F068F80022029B1A701CB05DF804EBB9
:10425C0003B07047580000200802FFFF2DE9F0471B
:10426C008E6882469E420C4690461F4638D88A89F4
:10427C0012F4906F32D0256809690133A5EB01095E
:10428C0065694B4405EB450505EBD5756D109D42F5
:10429C0038BF1D46530531D5294600F053FB064661
:1042AC0050B90C234FF0FF30CAF80030A38943F00B
:1042BC004003A381BDE8F0874A46216900F0CEFA9D
:1042CC00A38923F4906343F08003A38126614E44B9
:1042DC0026603E466561A5EB0905A560BE4200D986
:1042EC003E4632464146206800F0C6FAA368226872
:1042FC009B1B32440020A3602260DBE72A4600F0BF
:10430C007BFB06460028E1D15046216900F0CEFA2D
:10431C00C7E700002DE9F04F98468B8907461B062E
:10432C000D4614469DB00ED50B6963B9402100F0C3
:10433C0009FB2860286120B90C233B604FF0FF304B
:10434C00D1E040236B610023099320238DF82930A1
:10435C0030234FF00109CDF80C80DFF8A4818DF8E3
:10436C002A3023469A4613F8012B0AB1252AF9D193
:10437C00BAEB040B0BD05B46224629463846FFF7B6
:10438C006DFF013000F0AA80099A5A4409929AF8FC
:10439C000030002B00F0A28000234FF0FF32CDE95B
:1043AC0005230AF1010A049307938DF853301A93ED
:1043BC005446052214F8011B514800F041FA049AA6
:1043CC00D8B9D00644BF20238DF85330110744BF11
:1043DC002B238DF853309AF800302A2B15D05446E5
:1043EC0000204FF00A0C079A214611F8013B303B94
:1043FC00092B4ED9B0B1079214E0A0EB080309FACF
:10440C0003F31343A2460493D2E7039B191D1B68C5
:10441C000391002BBBBF5B4242F002020793079350
:10442C00B8BF049223782E2B0CD163782A2B35D16C
:10443C00039B02341A1D1B680392002BB8BF4FF06C
:10444C00FF330593DFF8C8A003225046217800F013
:10445C00F7F940B14023A0EB0A0003FA00F0049BEB
:10446C0001340343049314F8011B062225488DF8EC
:10447C00281000F0E5F9002838D0234B1BBB039B18
:10448C00073323F0070308330393099B3344099341
:10449C0067E70C4601200CFB0232A5E700234FF026
:1044AC000A0C194601340593204610F8012B303ABA
:1044BC00092A03D9002BC5D00591C3E70446012373
:1044CC000CFB0121F0E703AB00932A4638460F4B57
:1044DC0004A9AFF30080421C0646D6D1AB895B061B
:1044EC003FF52CAF09981DB0BDE8F08F03AB0093DE
:1044FC002A463846054B04A900F07CF8EBE700BFD0
:10450C00FA4A0008044B0008000000006942000849
:10451C00004B00082DE9F047164699468A680B694E
:10452C0007469342B8BF1346336091F843200C46BC
:10453C00DDF820800AB1013333602368990642BF4D
:10454C00336802333360256815F0060506D104F193
:10455C00190AE36832689B1AAB4228DC94F84320B2
:10456C00131E226818BF012392062DD449463846E3
:10457C0004F14302C047013020D02368E56803F002
:10458C000603042B18BF002532684FF00006A36801
:10459C0008BFAD1A226908BF25EAE5759342C4BF6E
:1045AC009B1AED181A34B5421AD1002008E00123E9
:1045BC00524649463846C047013003D14FF0FF30D0
:1045CC00BDE8F0870135C4E73020E11881F84300DD
:1045DC005A1C94F845102244023382F84310C5E764
:1045EC000123224649463846C0470130E6D0013601
:1045FC00D9E700002DE9FF470C46277E9146782F1E
:10460C0080469A460C9904F1430207D8622F0AD8C7
:10461C00002F00F0D980582F00F0A48004F142063E
:10462C0084F842703AE0A7F16303152BF6D801A089
:10463C0050F823F099460008AD46000829460008BA
:10464C00294600082946000829460008AD460008FE
:10465C002946000829460008294600082946000872
:10466C00BB470008DD4600089D47000829460008A6
:10467C0029460008DD47000829460008DD460008E9
:10468C002946000829460008A54700080B6804F1D4
:10469C0042061A1D1B680A6084F842300123A4E00C
:1046AC00256808682E0600F104030AD505680B601E
:1046BC00002D03DA2D236D4284F843300A235E4823
:1046CC0019E015F0400F05680B6018BF2DB2EFE72D
:1046DC000B682568181D0860280601D51D6802E0C6
:1046EC006906FBD51D886F2F0CBF08230A2352487F
:1046FC00002184F843106668002EA8BF2168A660CC
:10470C00A4BF21F0040121600DB9002E4DD0164636
:10471C00B5FBF3F103FB1157C75D06F8017D2F467E
:10472C00BB420D46F4D9082B0BD12368DF0708D503
:10473C00236961689942DEBF302306F8013C06F11B
:10474C00FF36921B22614B4621464046CDF800A015
:10475C0003AAFFF7DFFE01304CD14FF0FF3004B05D
:10476C00BDE8F087344884F845700E68236856F825
:10477C00045B1F060E6014D5D90744BF43F0200319
:10478C0023601DB9236823F0200323601023AFE7B7
:10479C00236843F0200323607823284884F84530AD
:1047AC00E3E75E0648BFADB2E6E71646BBE70B682B
:1047BC0026681D1D60690D6035061B6801D51860E3
:1047CC0002E07106FBD51880002316462361BAE778
:1047DC000B681A1D0A601E6800213046626800F0E2
:1047EC002FF808B1801B606063682361002384F894
:1047FC004330A8E73246494640462369D04701304A
:10480C00ABD023689B0713D4E068039B9842B8BFD6
:10481C001846A4E70123324649464046D0470130AA
:10482C009BD00135E36803995B1AAB42F2DCEBE7F2
:10483C00002504F11906F5E70B4B00081C4B00088A
:10484C00034610B5C9B202449342184601D1002068
:10485C0003E0047801338C42F6D110BD0A44914236
:10486C0000F1FF3300D1704710B511F8014B9142A4
:10487C0003F8014FF9D110BD884210B501EB0204C9
:10488C0002D98442234607D8431EA14208D011F80E
:10489C00012B03F8012FF8E7014602448A4200D1AC
:1048AC0010BD13F8014D02F8014DF7E738B5054678
:1048BC00002943D051F8043C0C1F002BB8BFE4185E
:1048CC0000F0D0F81E4A1368104633B963601460C8
:1048DC002846BDE8384000F0CBB8A3420AD921687D
:1048EC006218934201BF1A685B68521822606360B9
:1048FC000460EDE71A465B680BB1A342FAD9116864
:10490C005018A0420BD1206801445018834211600A
:10491C00DED118685B68014411605360D8E702D996
:10492C000C232B60D4E7206821188B4201BF196837
:10493C005B680918216063605460C9E738BD00BF2B
:10494C00EC000020F8B5CD1C25F0030508350C2D26
:10495C0038BF0C25002D064601DBA94203D90C23D8
:10496C0033600020F8BD00F07DF821490A68144638
:10497C009CB9204F3B6823B92146304600F062F8C1
:10498C0038602946304600F05DF8431C23D10C23D7
:10499C003046336000F06CF8E3E723685B1B17D4F8
:1049AC000B2B03D923601C44256004E06368A242EE
:1049BC000CBF0B605360304600F05AF804F10B004A
:1049CC00231D20F00700C21ACCD01B1AA350C9E734
:1049DC0022466468CCE7C41C24F00304A042E3D054
:1049EC00211A304600F02EF80130DDD1CFE700BFA0
:1049FC00EC000020F0000020F8B5074614460E46E7
:104A0C0021B91146BDE8F840FFF79CBF22B9FFF76A
:104A1C004DFF25462846F8BD00F030F8A0420FD2D5
:104A2C0021463846FFF78EFF05460028F2D0314666
:104A3C002246FFF713FF31463846FFF737FFE9E709
:104A4C003546E7E738B50023054D044608462B608C
:104A5C00FDF736F9431C02D12B6803B1236038BD36
:104A6C0060020020014800F011B800BF680200206D
:104A7C00014800F00CB800BF6802002051F8043C5B
:104A8C00181F002BBCBF0B58C018704770477047DD
:104A9C00F8B500BFF8BC08BC9E467047F8B500BF1F
:084AAC00F8BC08BC9E467047EF
:104AB4005461736B49443A20256400002074696D85
:104AC400656F75742061742025640D00000000007A
:104AD40000000000010203040607080900000000AA
:104AE4000102030402030405060708090A0B0C0D5E
:104AF4000E0F10100102232D302B2000686C4C0087
:104B040065666745464700303132333435363738C9
:104B14003941424344454600303132333435363727
:0C4B2400383961626364656600000000BF
:044B30003101000847
:044B34000D01000867
:104B380002000000004000000080000001000000AA
:104B48000100000001000000010000000100000059
:104B58000100000001000000010000000100000049
:104B6800010000000100000001000000F401000045
:104B78000A00000006000000040000000024F40001
:104B880010000000010000005C0000200000000090
:104B9800000000000000000000000000000000000D
:104BA80000000000000000000000000000000000FD
:104BB80000000000000000000000000000000000ED
:104BC80000000000000000000000000000000000DD
:104BD80000000000000000000000000000000000CD
:0C4BE800000000000000000000000000C1
:0400000508001D458D
:00000001FF
